:020000040000fa
:080000000002040000000000f2
:020000040000fa
:04000800540300009d
:020000040000fa
:04000c009603000057
:020000040000fa
:04001000d603000013
:020000040000fa
:040014007403000071
:020000040000fa
:04001800b60300002b
:020000040000fa
:04001c00c804000014
:020000040000fa
:04002000f6030000e3
:020000040000fa
:04002400c80400000c
:020000040000fa
:04002800c804000008
:020000040000fa
:04002c001e030000af
:020000040000fa
:04003000c804000000
:020000040000fa
:04003400c8040000fc
:020000040000fa
:04003800c8040000f8
:020000040000fa
:04003c00c8040000f4
:020000040000fa
:04004000c8040000f0
:020000040000fa
:04004400c8040000ec
:020000040000fa
:04004800c8040000e8
:020000040000fa
:04004c00c8040000e4
:020000040000fa
:04005000c8040000e0
:020000040000fa
:04005400c8040000dc
:020000040000fa
:04005800c8040000d8
:020000040000fa
:04005c00c8040000d4
:020000040000fa
:04006000c8040000d0
:020000040000fa
:04006400c8040000cc
:020000040000fa
:04006800c8040000c8
:020000040000fa
:04006c00c8040000c4
:020000040000fa
:04007000c8040000c0
:020000040000fa
:04007400c8040000bc
:020000040000fa
:04007800c8040000b8
:020000040000fa
:04007c00c8040000b4
:020000040000fa
:04008000c8040000b0
:020000040000fa
:04008400c8040000ac
:020000040000fa
:04008800c8040000a8
:020000040000fa
:04008c00c8040000a4
:020000040000fa
:04009000c8040000a0
:020000040000fa
:04009400c80400009c
:020000040000fa
:04009800c804000098
:020000040000fa
:04009c00c804000094
:020000040000fa
:0400a000c804000090
:020000040000fa
:0400a400c80400008c
:020000040000fa
:0400a800c804000088
:020000040000fa
:0400ac00c804000084
:020000040000fa
:0400b000c804000080
:020000040000fa
:0400b400c80400007c
:020000040000fa
:0400b800c804000078
:020000040000fa
:0400bc00c804000074
:020000040000fa
:0400c000c804000070
:020000040000fa
:0400c400c80400006c
:020000040000fa
:0400c800c804000068
:020000040000fa
:0400cc00c804000064
:020000040000fa
:0400d000c804000060
:020000040000fa
:0400d400c80400005c
:020000040000fa
:0400d800c804000058
:020000040000fa
:0400dc00c804000054
:020000040000fa
:0400e000c804000050
:020000040000fa
:0400e400c80400004c
:020000040000fa
:0400e800c804000048
:020000040000fa
:0400ec00c804000044
:020000040000fa
:0400f000c804000040
:020000040000fa
:0400f400c80400003c
:020000040000fa
:0400f800c804000038
:020000040000fa
:0400fc00c804000034
:020000040000fa
:04010000c80400002f
:020000040000fa
:04010400c80400002b
:020000040000fa
:04010800c804000027
:020000040000fa
:04010c00c804000023
:020000040000fa
:04011000c80400001f
:020000040000fa
:04011400c80400001b
:020000040000fa
:04011800c804000017
:020000040000fa
:04011c00c804000013
:020000040000fa
:04012000c80400000f
:020000040000fa
:04012400c80400000b
:020000040000fa
:04012800c804000007
:020000040000fa
:04012c00c804000003
:020000040000fa
:04013000c8040000ff
:020000040000fa
:04013400c8040000fb
:020000040000fa
:04013800c8040000f7
:020000040000fa
:04013c00c8040000f3
:020000040000fa
:04014000c8040000ef
:020000040000fa
:04014400c8040000eb
:020000040000fa
:04014800c8040000e7
:020000040000fa
:04014c00c8040000e3
:020000040000fa
:04015000c8040000df
:020000040000fa
:04015400c8040000db
:020000040000fa
:04015800c8040000d7
:020000040000fa
:04015c00c8040000d3
:020000040000fa
:04016000c8040000cf
:020000040000fa
:04016400c8040000cb
:020000040000fa
:04016800c8040000c7
:020000040000fa
:04016c00c8040000c3
:020000040000fa
:04017000c8040000bf
:020000040000fa
:04017400c8040000bb
:020000040000fa
:04017800c8040000b7
:020000040000fa
:04017c00c8040000b3
:020000040000fa
:04018000c8040000af
:020000040000fa
:04018400c8040000ab
:020000040000fa
:04018800c8040000a7
:020000040000fa
:04018c00c8040000a3
:020000040000fa
:04019000c80400009f
:020000040000fa
:04019400c80400009b
:020000040000fa
:04019800c804000097
:020000040000fa
:04019c00c804000093
:020000040000fa
:0401a000c80400008f
:020000040000fa
:0401a400c80400008b
:020000040000fa
:0401a800c804000087
:020000040000fa
:0401ac00c804000083
:020000040000fa
:0401b000c80400007f
:020000040000fa
:0401b400c80400007b
:020000040000fa
:0401b800c804000077
:020000040000fa
:0401bc00c804000073
:020000040000fa
:0401c000c80400006f
:020000040000fa
:0401c400c80400006b
:020000040000fa
:0401c800c804000067
:020000040000fa
:0401cc00c804000063
:020000040000fa
:0401d000c80400005f
:020000040000fa
:0401d400c80400005b
:020000040000fa
:0401d800c804000057
:020000040000fa
:0401dc00c804000053
:020000040000fa
:0401e000c80400004f
:020000040000fa
:0401e400c80400004b
:020000040000fa
:0401e800c804000047
:020000040000fa
:0401ec00c804000043
:020000040000fa
:0401f000c80400003f
:020000040000fa
:0401f400c80400003b
:020000040000fa
:0401f800c804000037
:020000040000fa
:0401fc00c804000033
:020000040000fa
:04020000c80400002e
:020000040000fa
:04020400c80400002a
:020000040000fa
:04020800c804000026
:020000040000fa
:04020c00c804000022
:020000040000fa
:04021000c80400001e
:020000040000fa
:04021400c80400001a
:020000040000fa
:04021800c804000016
:020000040000fa
:04021c00c804000012
:020000040000fa
:04022000c80400000e
:020000040000fa
:04022400c80400000a
:020000040000fa
:04022800c804000006
:020000040000fa
:04022c00c804000002
:020000040000fa
:04023000c8040000fe
:020000040000fa
:04023400c8040000fa
:020000040000fa
:04023800c8040000f6
:020000040000fa
:04023c00c8040000f2
:020000040000fa
:04024000c8040000ee
:020000040000fa
:04024400c8040000ea
:020000040000fa
:04024800c8040000e6
:020000040000fa
:04024c00c8040000e2
:020000040000fa
:04025000c8040000de
:020000040000fa
:04025400c8040000da
:020000040000fa
:04025800c8040000d6
:020000040000fa
:04025c00c8040000d2
:020000040000fa
:04026000c8040000ce
:020000040000fa
:04026400c8040000ca
:020000040000fa
:04026800c8040000c6
:020000040000fa
:04026c00c8040000c2
:020000040000fa
:04027000c8040000be
:020000040000fa
:04027400c8040000ba
:020000040000fa
:04027800c8040000b6
:020000040000fa
:04027c00c8040000b2
:020000040000fa
:04028000c8040000ae
:020000040000fa
:04028400c8040000aa
:020000040000fa
:04028800c8040000a6
:020000040000fa
:04028c00c8040000a2
:020000040000fa
:04029000c80400009e
:020000040000fa
:04029400c80400009a
:020000040000fa
:04029800c804000096
:020000040000fa
:04029c00c804000092
:020000040000fa
:0402a000c80400008e
:020000040000fa
:0402a400c80400008a
:020000040000fa
:0402a800c804000086
:020000040000fa
:0402ac00c804000082
:020000040000fa
:0402b000c80400007e
:020000040000fa
:0402b400c80400007a
:020000040000fa
:0402b800c804000076
:020000040000fa
:0402bc00c804000072
:020000040000fa
:0402c000c80400006e
:020000040000fa
:0402c400c80400006a
:020000040000fa
:0402c800c804000066
:020000040000fa
:0402cc00c804000062
:020000040000fa
:0402d000c80400005e
:020000040000fa
:0402d400c80400005a
:020000040000fa
:0402d800c804000056
:020000040000fa
:0402dc00c804000052
:020000040000fa
:0402e000c80400004e
:020000040000fa
:0402e400c80400004a
:020000040000fa
:0402e800c804000046
:020000040000fa
:0402ec00c804000042
:020000040000fa
:0402f000c80400003e
:020000040000fa
:0402f400c80400003a
:020000040000fa
:0402f800c804000036
:020000040000fa
:0402fc00c804000032
:020000040000fa
:04030000c80400002d
:020000040000fa
:04030400c804000029
:020000040000fa
:04030800c804000025
:020000040000fa
:04030c00c804000021
:020000040000fa
:04031000c80400001d
:020000040000fa
:04031400c804000019
:020000040000fa
:04031800c804000015
:020000040000fa
:04031c00c804000011
:020000040000fa
:04032000c80400000d
:020000040000fa
:04032400c804000009
:020000040000fa
:04032800500400007d
:020000040000fa
:04032c008c0400003d
:020000040000fa
:04033000c8040000fd
:020000040000fa
:04033400c8040000f9
:020000040000fa
:10040000af0421000eff26000e018800000000004e
:10041000000020000000e000020032000001200087
:1004200020028800140007005b0107000000e000c4
:1004300003003a00e0df2000010020000200370046
:100440000000200001002000810f70000100320038
:100450000f000700000020000000e0000200320052
:100460000000020000000000b407020000000000cd
:100470000040da000000fe00200020000000e00044
:1004800002003200100020009001880000000600e9
:10049000a1028800800478000000eb001f003700f4
:1004a000e284440054a0b4009905ba00e2844400f8
:1004b00054a0b4009906ba00e284440054a0b400e9
:1004c0000006eb00476fde00fd07b200ae018800ba
:1004d000636ce10003003a000ad801000000eb0061
:1004e0000e003700606ce10008003a00004deb00a0
:1004f0000a05e800020039003420ec000af0a000f0
:100500008b05e900f9ff3e00040037006168e10057
:10051000010032000086eb000b00070019c7ba008b
:100520001905ba000e04e00003003a000a00e000da
:10053000dbff3a0000000600fe07b200ae028800b2
:100540008a047800f5ff37000cd0a300e20f4d00bd
:100550001c003b0089027800354dba000a05e8000e
:10056000020039003420ec000af0a0008b05e900fd
:100570000f003200254dba000a05e80002003900dc
:100580003420ec000af0a0008b05e90008003200de
:100590000c00e0000600320015cdba000a05e800a4
:1005a000020039003420ec000af0a0008b05e900bd
:1005b0008984e80054a0b4000b00e000e2ff3a0098
:1005c000000006009902ba00055d78008b05e9007d
:1005d000f7ff3200c82ade00055d78008b05e900d0
:1005e000f3ff32000c00e000f1ff320019ddba0029
:1005f000eeff3700ea0c040000000000440a04008b
:1006000000000000720a040000000000a60a0400b6
:1006100000000000da0a0400000000000c0b0400d7
:10062000000000003e0b040000000000520b04001c
:10063000000000009e070400000000003600f800e3
:10064000809fbe00829fbe00849fbe00869fbe002a
:100650000000fa00008180000000e000020032008b
:10066000008180000000010090042100104078000b
:100670008040e800900421000148780080042100b7
:1006800011c0b300014878000028a9000080fa00da
:100690004f03be004f02be004f01be004f00be0020
:1006a0003600f900004006003600f800809fbe00ca
:1006b000829fbe00849fbe00869fbe000000fa009d
:1006c000c028a9000000eb00a20507000080fa0086
:1006d0004f03be004f02be004f01be004f00be00e0
:1006e0003600f900004006003600f800809fbe008a
:1006f000829fbe00849fbe00869fbe000000fa005d
:1007000099050700c048a9001000200091050700c6
:100710000080fa004f03be004f02be004f01be0032
:100720004f00be003600f900004006003600f80019
:10073000809fbe00829fbe00849fbe00869fbe0039
:100740000000fa00c068a900200020008105070011
:100750000080fa004f03be004f02be004f01be00f2
:100760004f00be003600f900004006003600f800d9
:10077000809fbe00829fbe00849fbe00869fbe00f9
:100780000000fa00c088a9003000200071050700b1
:100790000080fa004f03be004f02be004f01be00b2
:1007a0004f00be003600f900004006003600f80099
:1007b000809fbe00829fbe00849fbe00869fbe00b9
:1007c0000000fa00c608a9007000200061050700bb
:1007d0000080fa004f03be004f02be004f01be0072
:1007e0004f00be003600f900004006003600f80059
:1007f000809fbe00829fbe00849fbe00869fbe0079
:100800000000fa00214680000010200000806000f7
:100810000000e00003003200c508a900c00020006d
:100820004c05070021468000000028000080600081
:100830000000e00003003200c5e8a90080002000ad
:10084000440507002146800000022000008060006f
:100850000000e00003003200c4a8a90090002000be
:100860003c05070020468000700060000000e000aa
:1008700003003200c488a900a0002000350507004d
:1008800020468000610060000000e00003003200ac
:10089000c408a900b00020002e050700ffff3700a4
:1008a0003600f800809fbe00829fbe00849fbe007d
:1008b000869fbe003200f8003400f80010002000cf
:1008c000a00188001000200000d0fe000200fa0005
:1008d000e1618000010f7800508080000000e0009e
:1008e00003003200518080001e00780001000100ea
:1008f0001808a9000080fa003400f9003200f9005d
:100900004f03be004f02be004f01be004f00be00ad
:100910003600f900004006003600f800809fbe0057
:10092000829fbe00849fbe00869fbe003200f800fa
:100930003400f80010002000a00188001000200002
:1009400000d0fe000200fa00f1618000010f780083
:10095000608080000000e0000300320061808000c1
:100960001e007800010001001828a9000080fa008c
:100970003400f9003200f9004f03be004f02be0000
:100980004f01be004f00be003600f90000400600d7
:100990000040da000000fe00000005000000e90051
:1009a0008000eb0020828800318288000000060071
:1009b000d2f2270053c924002082800031828000b7
:1009c0000700070061014000e081480022828800a2
:1009d000338288004118de0001002000000006007c
:1009e000020ab900001bb9000200b80081004200f1
:0809f000810043000000060035
:020000040000fa
:1009f8000000fa0001eba8000080fa0000000600e1
:100a08000000fa0001eba9000080fa0000000600cf
:100a18000000fa0008cba8000080fa0000000600d9
:100a28000000fa0008cba9000080fa0000000600c8
:100a38000200fa00000f78000080fa0000000600ab
:100a48000400fa008e80e800800878000e80e80034
:100a580010007800e20f500014003200e20f50003e
:100a680005003e000000e0000a003200e10f5000df
:100a78000b00320019003700e40f5000110032005b
:100a8800e40f50000c003900e50f50001000320050
:100a98001200370031618000010f78000f00370025
:100aa80041618000010f78000c00370081618000ef
:100ab800010f78000900370091618000010f78006c
:100ac80006003700e1618000010f7800030037005d
:100ad800f1618000010f7800000000001e0078001e
:100ae8000080fa00000006000400fa008e80e8008a
:100af800800878000e80e80010007800e20f5000af
:100b080022003200e20f500005003e000000e00025
:100b18000a003200e10f5000120032004300370093
:100b2800e40f50002d003200e40f5000210039007e
:100b3800e50f5000330032003c0037008059800038
:100b4800dd800a00000000000080fb0000f0a70024
:100b58000000ea000000ea004f00de00004f7800c5
:100b68003200370080598000ee800a000000000043
:100b78000080fb0000f0a7000000ea000000ea0087
:100b88004f00de00004f78002800370090598000a1
:100b980022800a00000000000080fb0000f0a7008f
:100ba8000000ea000000ea004f00de00004f780075
:100bb8001e0037009059800033800a0000000000b2
:100bc8000080fb0000f0a7000000ea000000ea0037
:100bd8004f00de00004f7800140037009059800065
:100be80088800a00000000000080fb0000f0a700d9
:100bf8000000ea000000ea004f00de00004f780025
:100c08000a0037009059800099800a00000000000f
:100c18000080fb0000f0a7000000ea000000ea00e6
:100c28004f00de00004f7800000000001e407800f2
:100c38000080fa00000006000400fa008e80e80038
:100c4800800878006aff07000e80e800100078002e
:100c580077ff07006eff070000fa20000100200060
:100c68002c0407006eff0700000000000e80e8005b
:100c7800100078009cff07000004a2000004e000b8
:100c8800faff3a000e80e800100078006cff0700b9
:100c9800000f78005aff07001e0078000080fa0055
:100ca800000006000000fa003e0ea90022eea9008e
:100cb8003faea9003fcea90023cea90023eea9008c
:100cc8003f8ea9005a8ea9005a6ea9000080fa002a
:100cd800000006000200fa00f2ff070000a8210049
:100ce800610020000b0407000000eb00000f7800f3
:100cf8001300370023cea80023eea9003f8ea900d9
:100d080000a82100610020000204070023cea900ea
:100d180023eea8003f8ea90000a821006100200052
:100d2800fc03070023cea90023eea9003f8ea800ec
:100d380000a8210061002000f60307001e0fe8004c
:100d48001e007800e40f5000eaff34000080fa002b
:100d5800000006000000fa0023cea80023eea90038
:100d68003f8ea90010002000e0808800500020007d
:100d7800f08088000080fa00000006000000fa00f9
:100d880023cea90023eea8003f8ea9002000200052
:100d9800e080880030002000f08088000080fa00a1
:100da800000006000000fa0023cea90023eea900e7
:100db8003f8ea80030002000e0808800200020003e
:100dc800f08088000080fa00000006000200fa00a7
:100dd800f5fe070051002000010178000500090018
:100de8000200d8008000fd00000fe8000000eb00c2
:100df80091ff0700a0808800100020008eff0700e8
:100e0800b0808800200020008bff0700c080880089
:100e18003000200088ff0700d08088001e0078007e
:100e2800e30f500010003200e30f500005003c00b3
:100e3800e10f500008003200e20f500008003200b5
:100e480010003700e40f500009003200e50f500091
:100e5800090032000b00370022eea8000900370015
:100e68003faea800070037003fcea80005003700b6
:100e78003e0ea800030037005a6ea8005a8ea8003c
:100e880000000000dc02070010c0b3000ef0b7003d
:100e98001e0078000080fa00000006000000fa003a
:100ea8008cff0700abff0700db0207000e70ef00a6
:100eb8001030ef001230ef000080fa00000006004a
:100ec8000000fa00380ea9003a0ea90038eea90071
:100ed8003aeea8001ceea9001eeea9001c4ea900bf
:100ee8001e4ea8003baea9003bcea900554ea80057
:100ef800574ea800556ea800576ea8003b0ea800d4
:100f0800382ea8003a2ea800384ea8003a4ea8005d
:100f1800386ea9003a6ea8001fcea9001feea900de
:100f28003b8ea900568ea900566ea9000080fa00d3
:100f3800000006000000fa00808080000000e80041
:100f48008080880081808000f0808000808f500041
:100f580001003500d1ff07000080fa0000000600fc
:100f68000a00fa004e030700e07920009a02070001
:100f7800d3ff07004bff070076ff07000500370087
:100f880000000000030037000000000001003700e7
:100f980000000000e0718000680060000000e000d0
:100fa80016003a009c0207000e70ef001030ef00a8
:100fb8001230ef0047ff0700e0808000e20f50008a
:100fc80006003200e30f500006003200e10f500027
:100fd80006003a0069ff07000400370071ff0700a8
:100fe800020037005bff07000000000000902000af
:100ff800d1032000470307009d0037000ed0bf0033
:101008000004a2000004e0000500320000b0210046
:10101800710b20003f0307006cff0700000f7800ea
:101028000000eb0004ff0700800078000e80e80055
:101038000108780010002000fffe070080007800fb
:10104800640047000108780020002000fafe07002d
:101058008000780066004700010878003000200012
:10106800f5fe070080007800680047000108780056
:101078001e007800e10f50000f003a000071800058
:10108800640060000000e0000b003a000ed0bf00d2
:101098000004e000080032005f02070022eea90009
:1010a800908080000000e800908088001030ef00f9
:1010b8000e70ef006e0037001e007800e20f50003f
:1010c80017003a00a08080004006b0008e80e8003b
:1010d80091007800810f500006003400a080800045
:1010e8004006b1008e80e80091007800810f500022
:1010f8000b0035000ed0bf000004e00008003200ed
:10110800450207003faea900908080000000e8007b
:10111800908088001030ef000e70ef005400370008
:101128001e007800e30f500017003a00b0808000de
:101138004006b000e400470091007800810f50009d
:1011480006003400b08080004006b100e40047008b
:1011580091007800810f50000b0035000ed0bf00c1
:101168000004e000080032002b0207003fcea9006f
:10117800908080000000e800908088001030ef0028
:101188000e70ef003a0037001e007800e40f5000a0
:1011980010003a00e1718000000820000080600023
:1011a8000000e0000b003a000ed0bf000004e00091
:1011b80008003200180207003e0ea9009080800047
:1011c8000000e800908088001030ef000e70ef00fb
:1011d800270037001e007800e50f500068ff3a002e
:1011e800c08080004006b000e6004700910078000b
:1011f800810f500012003400c08080004006b1000a
:10120800e600470091007800810f50000c003d0077
:10121800d08080004006b000e800470091007800c8
:10122800810f500006003400d08080004006b100d5
:10123800e800470091007800810f500052ff350008
:101248000ed0bf000004e00051ff3200f201070099
:101258005a6ea9005a8ea900908080000000e8000c
:10126800908088001030ef000e70ef0049ff3700c3
:1012780048ff37000000fa00002bef0000062000ae
:1012880010588800042bef00062bef00082bef0006
:1012980000002400505888000c2bef000e2bef00a4
:1012a800102bef00122bef00142bef00162bef0082
:1012b800202bef000030200010598800382bef0059
:1012c800402bef00482bef00502bef003a2bef009c
:1012d800422bef004a2bef00522bef003c2bef0084
:1012e800442bef004c2bef00542bef003e2bef006c
:1012f800462bef004e2bef00562bef00004020004e
:10130800505b880000402000705b8800004020008f
:10131800905b880000402000b05b8800a02bef00a5
:10132800a42bef00a82bef00ac2bef00d02bef0085
:10133800d22bef00d42bef00d82bef000030200089
:10134800b05e880000302000d05e8800f02bef00ef
:10135800f22bef00022cef0040a420004b00070006
:1013680020a720006100070060aa2000790007007c
:10137800a0ad200091000700c0b02000a800070021
:10138800e0b32000bf00070020b52000c700070019
:101398001808a9003808a8001828a9003828a800a3
:1013a8001160800000f020000100700010608800cb
:1013b80001eba80027000700802bef00822bef002d
:1013c800842bef00862bef00882bef008a2bef0091
:1013d80000102000605c880010002000705c88000d
:1013e800902bef0010102000905c88001010200057
:1013f800c05c88000080fa00000006000000fa00c7
:10140800000ca8000000000001608000001020000f
:10141800008060000000e000fbff32000a0ba8001b
:101428000080fa00000006000000fa00002ca80066
:1014380000000000016080000020200000806000a3
:101448000000e000fbff32000a2ba8000080fa0031
:10145800000006000000fa0000eca80000000000f0
:101468000160800000002800008060000000e000ab
:10147800fbff32000aeba8000080fa00000006001b
:101488000000fa000080fa00000006000200fa00de
:10149800000f78001e007800008088000080fa00a5
:1014a800000006000000fa005140800000402000c3
:1014b800008060000000e00006003200008080002c
:1014c8000000e000020032000080800000000100ff
:1014d8000b48a9000080fa00000006000200fa008c
:1014e800000f78000080fa00000006000200fa00f1
:1014f800000f78001e007800108088000080fa0035
:10150800000006000200fa00815980000000220055
:10151800008060000000e0000800320031618000b7
:10152800010f7800108080000000e0000300320006
:10153800118080001e007800010001000080fa0080
:10154800000006000200fa00000f78000080fa0090
:10155800000006000200fa00000f78001e00780064
:10156800208088000080fa00000006000200fa00cf
:101578008159800000002400008060000000e00025
:101588000800320041618000010f7800208080004f
:101598000000e00003003200218080001e00780077
:1015a800010001000080fa00000006000200fa00b5
:1015b800000f78000080fa00000006000200fa0020
:1015c800000f78001e007800308088000080fa0044
:1015d800000006000200fa009059800064006000d4
:1015e8000000e0000800320081618000010f7800ef
:1015f800308080000000e00003003200318080006d
:101608001e007800010001000080fa0000000600ba
:101618000200fa00000f78000080fa0000000600bf
:101628000200fa00000f78001e0078004080880051
:101638000080fa00000006000200fa0090598000bd
:10164800680060000000e00008003200916180003e
:10165800010f7800408080000000e00003003200a5
:10166800418080001e007800010001000080fa001f
:10167800000006000200fa00000f78000080fa005f
:10168800000006000200fa00000f78001e00780033
:10169800508088000080fa00000006000200fa006e
:1016a800000f78000080fa00000006000200fa002f
:1016b800000f78001e007800608088000080fa0023
:1016c800000006000000fa00007c80000080fa009c
:1016d800000006000200fa00faff0700000f780079
:1016e8001e007800240007000004e0000200320019
:1016f800000028007d0007001e0078002c0007006d
:101708000004e00002003200000024007700070017
:101718001e007800360007000004e00002003200d6
:1017280000202000710007001e007800400007001c
:101738000004e00002003200000820006b000700ef
:101748001e0078004a0007000004e0000200320092
:1017580000042000650007001e0078005400070000
:101768000004e00002003200000120005f000700d2
:101778000080fa00000006000400fa008e80e800ed
:10178800800878000040eb00004f78000e80e800e9
:10179800100078000000e00002003d0010c0b30017
:1017a800004f78001e4078000080fa000000060014
:1017b8000400fa008e80e800800878000040eb0002
:1017c800004f78000e80e8009000780000002400a8
:1017d800008060000000e0000200320010c0b3008a
:1017e800004f78001e4078000080fa0000000600d4
:1017f8000400fa008e80e800800878000040eb00c2
:10180800004f78000e80e80090007800002020004b
:10181800008060000000e0000200320010c0b30049
:10182800004f78001e4078000080fa000000060093
:101838000400fa008e80e800800878000040eb0081
:10184800004f78000e80e800900078000008200023
:10185800008060000000e0000200320010c0b30009
:10186800004f78001e4078000080fa000000060053
:101878000400fa008e80e800800878000040eb0041
:10188800004f78000e80e8009000780000042000e7
:10189800008060000000e0000200320010c0b300c9
:1018a800004f78001e4078000080fa000000060013
:1018b8000400fa008e80e800800878000040eb0001
:1018c800004f78000e80e80010007800700060007b
:1018d8000000e0000200320010c0b300004f7800a2
:1018e8001e4078000080fa00000006000200fa009e
:1018f800000f78001e80ea00017c80000100600073
:10190800007c88000080fa00000006000000fa0051
:10191800802fef000080fa00000006000000fa00a7
:101928000421ef0080d0230040088800000328002d
:1019380000088800008180000000e00002003a00f2
:10194800a0ce2000240007000028a9002028a80015
:10195800800421008040eb00014878000080fa00f4
:10196800000006000200fa00000f78009e007800d0
:1019780041088800800421008040eb00014878007d
:101988000080fa00000006000000fa00400880000d
:101998000080fa00000006000200fa00000f78003c
:1019a8009e00780021088800800421008040eb0018
:1019b800014878000080fa00000006000000fa00e4
:1019c800200880000080fa00000006000000fa00ed
:1019d8000080fa00000006000200fa00000f7800fc
:1019e8002028a9009e007800018188002028a800ee
:1019f8000080fa00000006000000fa0080042100c0
:101a08008040eb00014878002028a80001e1a800e8
:101a18000080fa00000006000000fa0001e1a900b9
:101a28002028a9000080fa00000006000200fa0041
:101a380080042100104f78001e4078000004e00068
:101a480003003200800421008040eb000148780048
:101a58001e4078000080fa00000006000000fa002e
:101a680090042100104078000080fb000080fa00fc
:101a7800000006000000fa00900421008040eb00fe
:101a8800014878000080fa00000006000000fa0013
:101a980010002300307c880060092000407c88000a
:101aa8008c2fef0010042000507c880010102000bc
:101ab800707c880060092000807c88001004200069
:101ac800907c88009a2fef00b82fef00ba2fef0014
:101ad800be2fef00002def00a02fef00a42fef0086
:101ae800a62fef00a82fef00aa2fef00ae2fef00d0
:101af800b02fef00b22fef00720020008007200007
:101b0800a109200053f82000804978008149780015
:101b1800824978000001eb00600420007105200074
:101b280043f820008049780081497800824978008c
:101b38000080fa00000006000000fa00707c8000b7
:101b4800ee800a00000000000080fb0000f0a70003
:101b58000000ea000000ea004f00de0000407800c4
:101b68000080fa00000006000000fa00062eef00d0
:101b7800222eef003e2eef005a2eef00f00120003b
:101b880010708800d0ff2f00f07088000080eb00f4
:101b9800d07188000080eb00b07288000c2eef0036
:101ba800282eef00442eef00602eef000a2eef00e3
:101bb800262eef00422eef005e2eef00082eef00db
:101bc800242eef00402eef005c2eef00f0012000e5
:101bd8000070880050382000e0708800f00c200069
:101be800c071880000c02200a07288000080fa003e
:041bf80000000600e3
:020000040000fa
:101bfc0048100000020000008000000020100000cf
:101c0c0002000000800000002410000020000000f2
:101c1c008000000022100000020000008200000082
:101c2c00ffff0000001000000e000000800000000c
:101c3c000e1000000e000000800000001c100000c0
:101c4c0004000000820000000100050000000000fc
:101c5c0044100000040000008000000000000000a0
:020000040000fa
:101c6c000200fa00000f780021028000200f2000f3
:101c7c00008060001e007000200288000080fa00c6
:101c8c00000006000000fa00c3e8a80000000000f5
:101c9c00000000000080fa00000006000000fa00be
:101cac00b0ff070078ff07000700070070fd070072
:101cbc0019ff0700f3ff070000022000e8ff0700f0
:101ccc000080fa00000006000000fa0001428000cb
:101cdc00f0f82f00008060000040a0000042880057
:101cec000145800080ff2f00008060000000a000f4
:101cfc000045880001458000f0f82f00008060004e
:101d0c000040a000004588000080fa00000006009a
:020000040000fa
:101d1c00f03fb1000180b10006003500ee03090070
:101d2c0000000000403fb1000180b100fbff3d000e
:101d3c001000b000203fb000020035000080090008
:081d4c00000000000000060089
:020000040000fa
:101d54000200fa00000f78009e00780011818800cc
:101d6400ffff37000000fa004002210080077800de
:101d7400c0032100000188000080fa000000060072
:020000040000fa
:020000040005f5
:047e0000ffffff0081
:020000040000fa
:020000040005f5
:047e2000ffffff0061
:020000040000fa
:020000040005f5
:047e30007fffff00d1
:020000040000fa
:020000040005f5
:047e3800bfffff0089
:020000040000fa
:020000040005f5
:047e40007f7fff0041
:020000040000fa
:020000040005f5
:047e4800ffffff0039
:020000040000fa
:020000040005f5
:047e5000deffff0052
:020000040000fa
:020000040005f5
:047e58000000ff0027
:020000040000fa
:020000040005f5
:047e60000000ff001f
:020000040000fa
:020000040005f5
:047e68000000ff0017
:020000040000fa
:020000040005f5
:047e70000000ff000f
:020000040000fa
:020000040005f5
:047e7800ffffff0009
:020000040000fa
:020000040005f5
:047e8000fffcff0004
:020000040000fa
:020000040005f5
:047e8800ffffff00f9
:020000040000fa
:020000040005f5
:047ff800ffffff0088
:020000040000fa
:020000040100f9
:04300000ffffff00cf
:00000001FF
