:020000040000fa
:080000000002040000000000f2
:020000040000fa
:04000800540300009d
:020000040000fa
:04000c009603000057
:020000040000fa
:04001000d603000013
:020000040000fa
:040014007403000071
:020000040000fa
:04001800b60300002b
:020000040000fa
:04001c00c804000014
:020000040000fa
:04002000f6030000e3
:020000040000fa
:04002400c80400000c
:020000040000fa
:04002800c804000008
:020000040000fa
:04002c001e030000af
:020000040000fa
:04003000c804000000
:020000040000fa
:04003400c8040000fc
:020000040000fa
:04003800c8040000f8
:020000040000fa
:04003c00c8040000f4
:020000040000fa
:04004000c8040000f0
:020000040000fa
:04004400c8040000ec
:020000040000fa
:04004800c8040000e8
:020000040000fa
:04004c00c8040000e4
:020000040000fa
:04005000c8040000e0
:020000040000fa
:04005400c8040000dc
:020000040000fa
:04005800c8040000d8
:020000040000fa
:04005c00c8040000d4
:020000040000fa
:04006000c8040000d0
:020000040000fa
:04006400c8040000cc
:020000040000fa
:04006800c8040000c8
:020000040000fa
:04006c00c8040000c4
:020000040000fa
:04007000c8040000c0
:020000040000fa
:04007400c8040000bc
:020000040000fa
:04007800c8040000b8
:020000040000fa
:04007c00c8040000b4
:020000040000fa
:04008000c8040000b0
:020000040000fa
:04008400c8040000ac
:020000040000fa
:04008800c8040000a8
:020000040000fa
:04008c00c8040000a4
:020000040000fa
:04009000c8040000a0
:020000040000fa
:04009400c80400009c
:020000040000fa
:04009800c804000098
:020000040000fa
:04009c00c804000094
:020000040000fa
:0400a000c804000090
:020000040000fa
:0400a400c80400008c
:020000040000fa
:0400a800c804000088
:020000040000fa
:0400ac00c804000084
:020000040000fa
:0400b000c804000080
:020000040000fa
:0400b400c80400007c
:020000040000fa
:0400b800c804000078
:020000040000fa
:0400bc00c804000074
:020000040000fa
:0400c000c804000070
:020000040000fa
:0400c400c80400006c
:020000040000fa
:0400c800c804000068
:020000040000fa
:0400cc00c804000064
:020000040000fa
:0400d000c804000060
:020000040000fa
:0400d400c80400005c
:020000040000fa
:0400d800c804000058
:020000040000fa
:0400dc00c804000054
:020000040000fa
:0400e000c804000050
:020000040000fa
:0400e400c80400004c
:020000040000fa
:0400e800c804000048
:020000040000fa
:0400ec00c804000044
:020000040000fa
:0400f000c804000040
:020000040000fa
:0400f400c80400003c
:020000040000fa
:0400f800c804000038
:020000040000fa
:0400fc00c804000034
:020000040000fa
:04010000c80400002f
:020000040000fa
:04010400c80400002b
:020000040000fa
:04010800c804000027
:020000040000fa
:04010c00c804000023
:020000040000fa
:04011000c80400001f
:020000040000fa
:04011400c80400001b
:020000040000fa
:04011800c804000017
:020000040000fa
:04011c00c804000013
:020000040000fa
:04012000c80400000f
:020000040000fa
:04012400c80400000b
:020000040000fa
:04012800c804000007
:020000040000fa
:04012c00c804000003
:020000040000fa
:04013000c8040000ff
:020000040000fa
:04013400c8040000fb
:020000040000fa
:04013800c8040000f7
:020000040000fa
:04013c00c8040000f3
:020000040000fa
:04014000c8040000ef
:020000040000fa
:04014400c8040000eb
:020000040000fa
:04014800c8040000e7
:020000040000fa
:04014c00c8040000e3
:020000040000fa
:04015000c8040000df
:020000040000fa
:04015400c8040000db
:020000040000fa
:04015800c8040000d7
:020000040000fa
:04015c00c8040000d3
:020000040000fa
:04016000c8040000cf
:020000040000fa
:04016400c8040000cb
:020000040000fa
:04016800c8040000c7
:020000040000fa
:04016c00c8040000c3
:020000040000fa
:04017000c8040000bf
:020000040000fa
:04017400c8040000bb
:020000040000fa
:04017800c8040000b7
:020000040000fa
:04017c00c8040000b3
:020000040000fa
:04018000c8040000af
:020000040000fa
:04018400c8040000ab
:020000040000fa
:04018800c8040000a7
:020000040000fa
:04018c00c8040000a3
:020000040000fa
:04019000c80400009f
:020000040000fa
:04019400c80400009b
:020000040000fa
:04019800c804000097
:020000040000fa
:04019c00c804000093
:020000040000fa
:0401a000c80400008f
:020000040000fa
:0401a400c80400008b
:020000040000fa
:0401a800c804000087
:020000040000fa
:0401ac00c804000083
:020000040000fa
:0401b000c80400007f
:020000040000fa
:0401b400c80400007b
:020000040000fa
:0401b800c804000077
:020000040000fa
:0401bc00c804000073
:020000040000fa
:0401c000c80400006f
:020000040000fa
:0401c400c80400006b
:020000040000fa
:0401c800c804000067
:020000040000fa
:0401cc00c804000063
:020000040000fa
:0401d000c80400005f
:020000040000fa
:0401d400c80400005b
:020000040000fa
:0401d800c804000057
:020000040000fa
:0401dc00c804000053
:020000040000fa
:0401e000c80400004f
:020000040000fa
:0401e400c80400004b
:020000040000fa
:0401e800c804000047
:020000040000fa
:0401ec00c804000043
:020000040000fa
:0401f000c80400003f
:020000040000fa
:0401f400c80400003b
:020000040000fa
:0401f800c804000037
:020000040000fa
:0401fc00c804000033
:020000040000fa
:04020000c80400002e
:020000040000fa
:04020400c80400002a
:020000040000fa
:04020800c804000026
:020000040000fa
:04020c00c804000022
:020000040000fa
:04021000c80400001e
:020000040000fa
:04021400c80400001a
:020000040000fa
:04021800c804000016
:020000040000fa
:04021c00c804000012
:020000040000fa
:04022000c80400000e
:020000040000fa
:04022400c80400000a
:020000040000fa
:04022800c804000006
:020000040000fa
:04022c00c804000002
:020000040000fa
:04023000c8040000fe
:020000040000fa
:04023400c8040000fa
:020000040000fa
:04023800c8040000f6
:020000040000fa
:04023c00c8040000f2
:020000040000fa
:04024000c8040000ee
:020000040000fa
:04024400c8040000ea
:020000040000fa
:04024800c8040000e6
:020000040000fa
:04024c00c8040000e2
:020000040000fa
:04025000c8040000de
:020000040000fa
:04025400c8040000da
:020000040000fa
:04025800c8040000d6
:020000040000fa
:04025c00c8040000d2
:020000040000fa
:04026000c8040000ce
:020000040000fa
:04026400c8040000ca
:020000040000fa
:04026800c8040000c6
:020000040000fa
:04026c00c8040000c2
:020000040000fa
:04027000c8040000be
:020000040000fa
:04027400c8040000ba
:020000040000fa
:04027800c8040000b6
:020000040000fa
:04027c00c8040000b2
:020000040000fa
:04028000c8040000ae
:020000040000fa
:04028400c8040000aa
:020000040000fa
:04028800c8040000a6
:020000040000fa
:04028c00c8040000a2
:020000040000fa
:04029000c80400009e
:020000040000fa
:04029400c80400009a
:020000040000fa
:04029800c804000096
:020000040000fa
:04029c00c804000092
:020000040000fa
:0402a000c80400008e
:020000040000fa
:0402a400c80400008a
:020000040000fa
:0402a800c804000086
:020000040000fa
:0402ac00c804000082
:020000040000fa
:0402b000c80400007e
:020000040000fa
:0402b400c80400007a
:020000040000fa
:0402b800c804000076
:020000040000fa
:0402bc00c804000072
:020000040000fa
:0402c000c80400006e
:020000040000fa
:0402c400c80400006a
:020000040000fa
:0402c800c804000066
:020000040000fa
:0402cc00c804000062
:020000040000fa
:0402d000c80400005e
:020000040000fa
:0402d400c80400005a
:020000040000fa
:0402d800c804000056
:020000040000fa
:0402dc00c804000052
:020000040000fa
:0402e000c80400004e
:020000040000fa
:0402e400c80400004a
:020000040000fa
:0402e800c804000046
:020000040000fa
:0402ec00c804000042
:020000040000fa
:0402f000c80400003e
:020000040000fa
:0402f400c80400003a
:020000040000fa
:0402f800c804000036
:020000040000fa
:0402fc00c804000032
:020000040000fa
:04030000c80400002d
:020000040000fa
:04030400c804000029
:020000040000fa
:04030800c804000025
:020000040000fa
:04030c00c804000021
:020000040000fa
:04031000c80400001d
:020000040000fa
:04031400c804000019
:020000040000fa
:04031800c804000015
:020000040000fa
:04031c00c804000011
:020000040000fa
:04032000c80400000d
:020000040000fa
:04032400c804000009
:020000040000fa
:04032800500400007d
:020000040000fa
:04032c008c0400003d
:020000040000fa
:04033000c8040000fd
:020000040000fa
:04033400c8040000f9
:020000040000fa
:10040000af0421000eff26000e018800000000004e
:10041000000020000000e000020032000001200087
:1004200020028800140007005b0107000000e000c4
:1004300003003a0000e52000010020000200370020
:100440000000200001002000810f70000100320038
:100450000f000700000020000000e0000200320052
:100460000000020000000000dc08020000000000a4
:100470000040da000000fe00200020000000e00044
:1004800002003200100020009001880000000600e9
:10049000a1028800800478000000eb001f003700f4
:1004a000e284440054a0b4009905ba00e2844400f8
:1004b00054a0b4009906ba00e284440054a0b400e9
:1004c0000006eb00476fde00fd07b200ae018800ba
:1004d000636ce10003003a000ad801000000eb0061
:1004e0000e003700606ce10008003a00004deb00a0
:1004f0000a05e800020039003420ec000af0a000f0
:100500008b05e900f9ff3e00040037006168e10057
:10051000010032000086eb000b00070019c7ba008b
:100520001905ba000e04e00003003a000a00e000da
:10053000dbff3a0000000600fe07b200ae028800b2
:100540008a047800f5ff37000cd0a300e20f4d00bd
:100550001c003b0089027800354dba000a05e8000e
:10056000020039003420ec000af0a0008b05e900fd
:100570000f003200254dba000a05e80002003900dc
:100580003420ec000af0a0008b05e90008003200de
:100590000c00e0000600320015cdba000a05e800a4
:1005a000020039003420ec000af0a0008b05e900bd
:1005b0008984e80054a0b4000b00e000e2ff3a0098
:1005c000000006009902ba00055d78008b05e9007d
:1005d000f7ff3200c82ade00055d78008b05e900d0
:1005e000f3ff32000c00e000f1ff320019ddba0029
:1005f000eeff37003c0d040000000000960a0400e6
:1006000000000000c40a040000000000f80a040012
:10061000000000002c0b0400000000005e0b040032
:1006200000000000900b040000000000a40b040078
:1006300000000000a4070400000000003600f800dd
:10064000809fbe00829fbe00849fbe00869fbe002a
:100650000000fa00008180000000e000020032008b
:10066000008180000000010090042100104078000b
:100670008040e800900421000148780080042100b7
:1006800011c0b300014878000028a9000080fa00da
:100690004f03be004f02be004f01be004f00be0020
:1006a0003600f900004006003600f800809fbe00ca
:1006b000829fbe00849fbe00869fbe000000fa009d
:1006c000c028a9000000eb00cb0507000080fa005d
:1006d0004f03be004f02be004f01be004f00be00e0
:1006e0003600f900004006003600f800809fbe008a
:1006f000829fbe00849fbe00869fbe000000fa005d
:10070000c2050700c048a90010002000ba05070074
:100710000080fa004f03be004f02be004f01be0032
:100720004f00be003600f900004006003600f80019
:10073000809fbe00829fbe00849fbe00869fbe0039
:100740000000fa00c068a90020002000aa050700e8
:100750000080fa004f03be004f02be004f01be00f2
:100760004f00be003600f900004006003600f800d9
:10077000809fbe00829fbe00849fbe00869fbe00f9
:100780000000fa00c088a900300020009a05070088
:100790000080fa004f03be004f02be004f01be00b2
:1007a0004f00be003600f900004006003600f80099
:1007b000809fbe00829fbe00849fbe00869fbe00b9
:1007c0000000fa00c608a900700020008a05070092
:1007d0000080fa004f03be004f02be004f01be0072
:1007e0004f00be003600f900004006003600f80059
:1007f000809fbe00829fbe00849fbe00869fbe0079
:100800000000fa00214680000010200000806000f7
:100810000000e00003003200c508a900c00020006d
:100820007505070021468000000028000080600058
:100830000000e00003003200c5e8a90080002000ad
:100840006d05070021468000000220000080600046
:100850000000e00003003200c4a8a90090002000be
:100860006505070020468000700060000000e00081
:1008700003003200c488a900a00020005e05070024
:1008800020468000610060000000e00003003200ac
:10089000c408a900b000200057050700ffff37007b
:1008a0003600f800809fbe00829fbe00849fbe007d
:1008b000869fbe003200f8003400f80010002000cf
:1008c000a00188001000200000d0fe000200fa0005
:1008d000e1618000010f7800508080000000e0009e
:1008e00003003200518080001e00780001000100ea
:1008f0001808a9000080fa003400f9003200f9005d
:100900004f03be004f02be004f01be004f00be00ad
:100910003600f900004006003600f800809fbe0057
:10092000829fbe00849fbe00869fbe003200f800fa
:100930003400f80010002000a00188001000200002
:1009400000d0fe000200fa00f1618000010f780083
:10095000608080000000e0000300320061808000c1
:100960001e007800010001001828a9000080fa008c
:100970003400f9003200f9004f03be004f02be0000
:100980004f01be004f00be003600f90000400600d7
:100990000040da000000fe00000005000000e90051
:1009a0008000eb0020828800318288000000060071
:1009b000d2f2270053c924002082800031828000b7
:1009c0000700070061014000e081480022828800a2
:1009d000338288004118de0001002000000006007c
:1009e000020ab900001bb9000200b80081004200f1
:0809f000810043000000060035
:020000040000fa
:1009f8000000fa0001eba8000080fa0000000600e1
:100a08000000fa0001eba9000080fa0000000600cf
:100a18000000fa0008cba8000080fa0000000600d9
:100a28000000fa0008cba9000080fa0000000600c8
:100a38000200fa00000f78000080fa0000000600ab
:100a48000400fa008e80e800800878000e80e80034
:100a580010007800e20f500014003200e20f50003e
:100a680005003e000000e0000a003200e10f5000df
:100a78000b00320019003700e40f5000110032005b
:100a8800e40f50000c003900e50f50001000320050
:100a98001200370031618000010f78000f00370025
:100aa80041618000010f78000c00370081618000ef
:100ab800010f78000900370091618000010f78006c
:100ac80006003700e1618000010f7800030037005d
:100ad800f1618000010f7800000000001e0078001e
:100ae8000080fa00000006000400fa008e80e8008a
:100af800800878000e80e80010007800e20f5000af
:100b080022003200e20f500005003e000000e00025
:100b18000a003200e10f5000120032004300370093
:100b2800e40f50002d003200e40f5000210039007e
:100b3800e50f5000330032003c0037008059800038
:100b4800dd800a00000000000080fb0000f0a70024
:100b58000000ea000000ea004f00de00004f7800c5
:100b68003200370080598000ee800a000000000043
:100b78000080fb0000f0a7000000ea000000ea0087
:100b88004f00de00004f78002800370090598000a1
:100b980022800a00000000000080fb0000f0a7008f
:100ba8000000ea000000ea004f00de00004f780075
:100bb8001e0037009059800033800a0000000000b2
:100bc8000080fb0000f0a7000000ea000000ea0037
:100bd8004f00de00004f7800140037009059800065
:100be80088800a00000000000080fb0000f0a700d9
:100bf8000000ea000000ea004f00de00004f780025
:100c08000a0037009059800099800a00000000000f
:100c18000080fb0000f0a7000000ea000000ea00e6
:100c28004f00de00004f7800000000001e407800f2
:100c38000080fa00000006000400fa008e80e80038
:100c4800800878006aff07000e80e800100078002e
:100c580077ff07006eff070000fa20000100200060
:100c6800550407006eff0700000000000e80e80032
:100c7800100078009cff07000004a2000004e000b8
:100c8800faff3a000e80e800100078006cff0700b9
:100c9800000f78005aff07001e0078000080fa0055
:100ca800000006000000fa003e0ea90022eea9008e
:100cb8003faea9003fcea90023cea90023eea9008c
:100cc8003f8ea9005a8ea9005a6ea9000080fa002a
:100cd800000006000200fa00f2ff070000a8210049
:100ce80061002000340407000000eb00000f7800ca
:100cf8001300370023cea80023eea9003f8ea900d9
:100d080000a82100610020002b04070023cea900c1
:100d180023eea8003f8ea90000a821006100200052
:100d28002504070023cea90023eea9003f8ea800c2
:100d380000a82100610020001f0407001e0fe80022
:100d48001e007800e40f5000eaff34000080fa002b
:100d5800000006000000fa0023cea80023eea90038
:100d68003f8ea90010002000e0808800500020007d
:100d7800f08088000080fa00000006000000fa00f9
:100d880023cea90023eea8003f8ea9002000200052
:100d9800e080880030002000f08088000080fa00a1
:100da800000006000000fa0023cea90023eea900e7
:100db8003f8ea80030002000e0808800200020003e
:100dc800f08088000080fa00000006000200fa00a7
:100dd800f5fe070051002000010178000500090018
:100de8000200d8008000fd00000fe8000000eb00c2
:100df80091ff0700a0808800100020008eff0700e8
:100e0800b0808800200020008bff0700c080880089
:100e18003000200088ff0700d08088001e0078007e
:100e2800e30f500010003200e30f500005003c00b3
:100e3800e10f500008003200e20f500008003200b5
:100e480010003700e40f500009003200e50f500091
:100e5800090032000b00370022eea8000900370015
:100e68003faea800070037003fcea80005003700b6
:100e78003e0ea800030037005a6ea8005a8ea8003c
:100e8800000000000503070010c0b3000ef0b70013
:100e98001e0078000080fa00000006000000fa003a
:100ea8008cff0700abff0700040307000e70ef007c
:100eb8001030ef001230ef000080fa00000006004a
:100ec8000000fa00380ea9003a0ea90038eea90071
:100ed8003aeea8001ceea9001eeea9001c4ea900bf
:100ee8001e4ea8003baea9003bcea900554ea80057
:100ef800574ea800556ea800576ea8003b0ea800d4
:100f0800382ea8003a2ea800384ea8003a4ea8005d
:100f1800386ea9003a6ea8001fcea9001feea900de
:100f28003b8ea900568ea900566ea90057eea9005f
:100f3800006ea800026ea8000080fa0000000600fb
:100f48000000fa00808080000000e80080808800af
:100f580081808000f0808000808f50000100350083
:100f6800ceff07000080fa00000006000000fa002b
:100f7800d2020700908080000000e800908088007e
:100f88001030ef000e70ef000080fa00000006003d
:100f98000000fa00c90207000e70ef001030ef00e1
:100fa8001230ef004bff0700e0808000e20f500096
:100fb80006003200e30f500006003200e10f500037
:100fc80006003a006dff07000400370075ff0700b0
:100fd800020037005fff07000000000000902000bb
:100fe800d1032000740307000080fa000000060007
:100ff8000a00fa00000f78000e80e8000108780067
:10100800640047000208780066004700030878007b
:1010180068004700040878001e007800e30f5000bd
:1010280022003200e30f500005003c00e10f5000a1
:1010380008003200e20f50000d0032005700370060
:10104800e40f500028003200e50f50002e00320057
:101058005200370000718000640060000000e0006a
:1010680045003a0022eea900c0ff07004b003700f8
:10107800a08080004006b0008e80e80091007800d3
:10108800810f500006003400a08080004006b100a7
:101098008e80e80091007800810f500038003500fc
:1010a8003faea900b1ff07003c003700b0808000c8
:1010b8004006b000e400470091007800810f50001e
:1010c80006003400b08080004006b100e40047000c
:1010d80091007800810f50002b0035003fcea90009
:1010e800a2ff07002d003700e171800000082000f2
:1010f800008060000000e00025003a003e0ea900d4
:101108009aff070025003700c08080004006b00025
:10111800e600470091007800810f5000120034006b
:10112800c08080004006b100e600470091007800ca
:10113800810f50000c003d00d08080004006b000b8
:10114800e800470091007800810f50000600340045
:10115800d08080004006b100e80047009100780088
:10116800810f50000c0035005a6ea9005a8ea90054
:101178007eff070009003700000000000700370065
:1011880000000000050037000000000003003700e1
:101198000000000001003700000000000080fa0095
:1011a800000006000000fa000080fa0000000600b7
:1011b8000600fa00889fbe008a1f7800e102070037
:1011c800407a20002d0207003dff0700b5fe07000a
:1011d800e0fe070011c0b300640047000148780032
:1011e80064004700104078000004e000230032004b
:1011f8005beea9008000eb000e80e8000108780093
:1012080019003700066ea90000202100a107200060
:10121800e9020700066ea90000202100a1072000ae
:10122800e5020700066ea80000202100a1072000a3
:10123800e1020700066ea80000202100a107200097
:10124800dd020700066ea80000202100a10720008b
:10125800d90207000e80e800100078008000e8003e
:101268000e80e800010878000e80e8001000780081
:10127800e90f5000e3ff340022003700e0718000de
:10128800680060000000e00003003a0040ff07002b
:1012980000000000f9ff37000ed0bf000004e00096
:1012a800120032003000200063fe070000057800bd
:1012b8002000200060fe0700800478001000200055
:1012c8005dfe0700000478000000eb005afe0700ee
:1012d8000a02780089017800080178008000780007
:1012e8001e00780042ff0700e4ff370000b021002d
:1012f800710b2000b0020700b4fe0700000f780051
:10130800deff37000000eb004f0578004f04be00f9
:101318000080fa00000006000000fa00002bef0031
:101328000006200010588800042bef00062bef0061
:10133800082bef0000002400505888000c2bef0009
:101348000e2bef00102bef00122bef00142bef00e9
:10135800162bef00202bef000030200010598800da
:10136800382bef00402bef00482bef00502bef00fd
:101378003a2bef00422bef004a2bef00522bef00e5
:101388003c2bef00442bef004c2bef00542bef00cd
:101398003e2bef00462bef004e2bef00562bef00b5
:1013a80000402000505b880000402000705b8800ef
:1013b80000402000905b880000402000b05b88005f
:1013c800a02bef00a42bef00a82bef00ac2bef0015
:1013d800d02bef00d22bef00d42bef00d82bef004f
:1013e80000302000b05e880000302000d05e880009
:1013f800f02bef00f22bef00022cef0060a9200089
:101408004b00070040ac20006100070080af2000bf
:1014180079000700c0b2200091000700e0b5200065
:10142800a800070000b92000bf00070040ba20004c
:10143800c70007001808a9003808a8001828a9003c
:101448003828a8001160800000f02000010070001a
:101458001060880001eba80027000700802bef0030
:10146800822bef00842bef00862bef00882bef00f8
:101478008a2bef0000102000605c8800100020001c
:10148800705c8800902bef0010102000905c8800a2
:1014980010102000c05c88000080fa0000000600e0
:1014a8000000fa00000ca8000000000001608000a5
:1014b80000102000008060000000e000fbff320008
:1014c8000a0ba8000080fa00000006000000fa00dd
:1014d800002ca8000000000001608000002020000f
:1014e800008060000000e000fbff32000a2ba8002b
:1014f8000080fa00000006000000fa0000eca800d6
:1015080000000000016080000000280000806000ea
:101518000000e000fbff32000aeba8000080fa00a0
:10152800000006000000fa000080fa000000060033
:101538000200fa00000f78001e0078000080880082
:101548000080fa00000006000000fa005140800008
:1015580000402000008060000000e000060032002b
:10156800008080000000e00002003200008080005f
:10157800000001000b48a9000080fa0000000600e6
:101588000200fa00000f78000080fa000000060050
:101598000200fa00000f78001e0078001080880012
:1015a8000080fa00000006000200fa00815980005d
:1015b80000002200008060000000e0000800320007
:1015c80031618000010f7800108080000000e00089
:1015d80003003200118080001e0078000100010025
:1015e8000080fa00000006000200fa00000f7800f0
:1015f8000080fa00000006000200fa00000f7800e0
:101608001e007800208088000080fa000000060094
:101618000200fa0081598000000024000080600068
:101628000000e0000800320041618000010f7800ee
:10163800208080000000e00003003200218080004c
:101648001e007800010001000080fa00000006007a
:101658000200fa00000f78000080fa00000006007f
:101668000200fa00000f78001e0078003080880021
:101678000080fa00000006000200fa00905980007d
:10168800640060000000e000080032008161800012
:10169800010f7800308080000000e0000300320075
:1016a800318080001e007800010001000080fa00ef
:1016b800000006000200fa00000f78000080fa001f
:1016c800000006000200fa00000f78001e007800f3
:1016d800408088000080fa00000006000200fa003e
:1016e80090598000680060000000e00008003200a7
:1016f80091618000010f7800408080000000e000c8
:1017080003003200418080001e00780001000100c3
:101718000080fa00000006000200fa00000f7800be
:101728000080fa00000006000200fa00000f7800ae
:101738001e007800508088000080fa000000060033
:101748000200fa00000f78000080fa00000006008e
:101758000200fa00000f78001e0078006080880000
:101768000080fa00000006000000fa00007c8000fb
:101778000080fa00000006000200fa00faff0700e5
:10178800000f78001e007800240007000004e00025
:1017980002003200000028007d0007001e007800cb
:1017a8002c0007000004e0000200320000002400c2
:1017b800770007001e007800360007000004e000ec
:1017c8000200320000202000710007001e0078008f
:1017d800400007000004e00002003200000820007a
:1017e8006b0007001e0078004a0007000004e000b4
:1017f8000200320000042000650007001e00780087
:10180800540007000004e00002003200000120003c
:101818005f0007000080fa00000006000400fa00dc
:101828008e80e800800878000040eb00004f7800c8
:101838000e80e800100078000000e00002003d0083
:1018480010c0b300004f78001e4078000080fa00f6
:10185800000006000400fa008e80e8008008780086
:101868000040eb00004f78000e80e8009000780000
:1018780000002400008060000000e0000200320048
:1018880010c0b300004f78001e4078000080fa00b6
:10189800000006000400fa008e80e8008008780046
:1018a8000040eb00004f78000e80e80090007800c0
:1018b80000202000008060000000e00002003200ec
:1018c80010c0b300004f78001e4078000080fa0076
:1018d800000006000400fa008e80e8008008780006
:1018e8000040eb00004f78000e80e8009000780080
:1018f80000082000008060000000e00002003200c4
:1019080010c0b300004f78001e4078000080fa0035
:10191800000006000400fa008e80e80080087800c5
:101928000040eb00004f78000e80e800900078003f
:1019380000042000008060000000e0000200320087
:1019480010c0b300004f78001e4078000080fa00f5
:10195800000006000400fa008e80e8008008780085
:101968000040eb00004f78000e80e800100078007f
:10197800700060000000e0000200320010c0b300f8
:10198800004f78001e4078000080fa000000060032
:101998000200fa00000f78001e80ea00017c800037
:1019a80001006000007c88000080fa00000006004a
:1019b8000000fa00802fef000080fa000000060007
:1019c8000000fa000421ef0080d0230040088800be
:1019d8000003280000088800008180000000e00063
:1019e80002003a00c0d32000240007000028a90004
:1019f8002028a800800421008040eb0001487800de
:101a08000080fa00000006000200fa00000f7800cb
:101a18009e00780041088800800421008040eb0087
:101a2800014878000080fa00000006000000fa0073
:101a3800400880000080fa00000006000200fa005a
:101a4800000f78009e00780021088800800421009b
:101a58008040eb00014878000080fa000000060092
:101a68000000fa00200880000080fa00000006004c
:101a78000000fa000080fa00000006000200fa00e8
:101a8800000f78002028a9009e00780001818800b6
:101a98002028a8000080fa00000006000000fa00d4
:101aa800800421008040eb00014878002028a8002d
:101ab80001e1a8000080fa00000006000000fa001a
:101ac80001e1a9002028a9000080fa000000060012
:101ad8000200fa0080042100104f78001e407800b0
:101ae8000004e00003003200800421008040eb0085
:101af800014878001e4078000080fa0000000600c7
:101b08000000fa0090042100104078000080fb00db
:101b18000080fa00000006000000fa00900421008e
:101b28008040eb00014878000080fa0000000600c1
:101b38000000fa0010002300307c880060092000b3
:101b4800407c88008c2fef0010042000507c880017
:101b580010102000707c880060092000807c8800bc
:101b680010042000907c88009a2fef00b82fef0017
:101b7800ba2fef00be2fef00002def00a02fef00cf
:101b8800a42fef00a62fef00a82fef00aa2fef0039
:101b9800ae2fef00b02fef00b22fef007200200041
:101ba80080072000a109200053f820008049780010
:101bb80081497800824978000001eb006004200028
:101bc8007105200043f82000804978008149780099
:101bd800824978000080fa00000006000000fa0040
:101be800707c8000ee800a00000000000080fb008e
:101bf80000f0a7000000ea000000ea004f00de0045
:101c0800004078000080fa00000006000000fa009a
:101c1800062eef00222eef003e2eef005a2eef0088
:101c2800f001200010708800d0ff2f00f0708800ad
:101c38000080eb00d07188000080eb00b072880053
:101c48000c2eef00282eef00442eef00602eef0040
:101c58000a2eef00262eef00422eef005e2eef0038
:101c6800082eef00242eef00402eef005c2eef0030
:101c7800f00120000070880050382000e0708800d3
:101c8800f00c2000c071880000c02200a0728800fb
:081c98000080fa0000000600c4
:020000040000fa
:101ca000481000000200000080000000201000002a
:101cb000020000008000000024100000200000004e
:101cc00080000000221000000200000082000000de
:101cd000ffff0000001000000e0000008000000068
:101ce0000e1000000e000000800000001c1000001c
:101cf0000400000082000000010005000000000058
:101d000044100000040000008000000000000000fb
:020000040000fa
:101d10000200fa00000f780021028000200f20004e
:101d2000008060001e007000200288000080fa0021
:101d3000000006000000fa00c3e8a8000000000050
:101d4000000000000080fa00000006000000fa0019
:101d5000b0ff070078ff07000700070070fd0700cd
:101d600019ff0700f3ff070000022000e8ff07004b
:101d70000080fa00000006000000fa000142800026
:101d8000f0f82f00008060000040a00000428800b2
:101d90000145800080ff2f00008060000000a0004f
:101da0000045880001458000f0f82f0000806000a9
:101db0000040a000004588000080fa0000000600f6
:020000040000fa
:101dc000f03fb1000180b10006003500ee030900cc
:101dd00000000000403fb1000180b100fbff3d006a
:101de0001000b000203fb000020035000080090064
:081df0000000000000000600e5
:020000040000fa
:101df8000200fa00000f78009e0078001181880028
:101e0800ffff37000000fa00400221008007780039
:101e1800c0032100000188000080fa0000000600cd
:020000040000fa
:020000040005f5
:047e0000ffffff0081
:020000040000fa
:020000040005f5
:047e2000ffffff0061
:020000040000fa
:020000040005f5
:047e30007fffff00d1
:020000040000fa
:020000040005f5
:047e3800bfffff0089
:020000040000fa
:020000040005f5
:047e40007f7fff0041
:020000040000fa
:020000040005f5
:047e4800ffffff0039
:020000040000fa
:020000040005f5
:047e5000deffff0052
:020000040000fa
:020000040005f5
:047e58000000ff0027
:020000040000fa
:020000040005f5
:047e60000000ff001f
:020000040000fa
:020000040005f5
:047e68000000ff0017
:020000040000fa
:020000040005f5
:047e70000000ff000f
:020000040000fa
:020000040005f5
:047e7800ffffff0009
:020000040000fa
:020000040005f5
:047e8000fffcff0004
:020000040000fa
:020000040005f5
:047e8800ffffff00f9
:020000040000fa
:020000040005f5
:047ff800ffffff0088
:020000040000fa
:020000040100f9
:04300000ffffff00cf
:00000001FF
